:020000040000FA
:02000000FE2FD1
:100F4C002730F100F530F000F00BAA2FF10BAA2F8F
:100F5C00831203130518B32FB42FA62F08000730E4
:100F6C00831203139F00831603138601831203134A
:100F7C0086018316031305148312051CC62FC72F75
:100F8C00C22FA627831203130614F501F50A0230AB
:100F9C00F4000430F300BA30F200F20BD32FF30B51
:100FAC00D32FF40BD32F0000831203130608F20087
:100FBC007207FF007F0886040130FF007F08F507E9
:100FCC0008307502031CEB2FEC2FCD2F0230F400F0
:100FDC000430F300BA30F200F20BF22FF30BF22FC5
:100FEC00F40BF22F0000831203138601C22F00288A
:040FFC008301B52F89
:02400E00303F41
:00000001FF
