:020000040000FA
:04000000B2EF3FF02C
:107F64000001C5EF3FF0C30E016ECD0EE82EFED723
:107F7400012EFCD700F080B0C2EF3FF0C4EF3FF019
:107F8400B5EF3FF012000F0EC112000E936E000EFB
:107F9400816E928080A0D1EF3FF0D3EF3FF0CCEF21
:107FA4003FF0B5EC3FF08180010E046E060E036EC7
:107FB400130E026EAE0EE82EFED7022EFCD7032E51
:107FC400FAD781508124816E042A070E0464EDEFF0
:107FD4003FF0EFEF3FF0D8EF3FF0060E036E130EC5
:107FE400026EAE0EE82EFED7022EFCD7032EFAD771
:0C7FF400000E816ECCEF3FF000EF00F0BB
:020000040020DA
:08000000FFFFFFFFFFFFFFFF00
:020000040030CA
:0E000000004C181EFF8081FF0FC00FE00F4064
:00000001FF
